vers00015hal0001boot0001size12349901pp00XXXXXXXXXXC8EDBCFECBF9D3D0C8A8A3BAC0D6C7E5BBAAC6D5B7ECC8D2BBFABFC6BCBCD3D0CFDEB9ABCBBE
:020000040801F1
:10000000583F0020D9AE0108E9AE0108F1590108B6
:1000100000000000000000000000000000000000E0
:10002000000000000000000000000000EBAE01082E
:1000300000000000000000006B590108EDAE01084F
:100040001B3D01082F4501087F470108D7640108BF
:100050008B6C01081B8001080F8C01089F99010817
:10006000EBAC0108219D0108E79D010843AE0108A2
:100070004FAE010875AF010877AF010879AF0108ED
:100080007BAF01087DAF01087FAF010881AF010898
:1000900083AF010885AF010887AF010889AF010868
:1000A0008BAF01088DAF01088FAF0108739C010869
:1000B000399D010891AF010893AF010810B5C54CF7
:1000C000606804214056002809D101206168087148
:1000D00060686168896888470220616808716068A3
:1000E00004214056032806D1606861688968884702
:1000F000022061680871606804214056022807D117
:100100006068C068002803D060686168C968884773
:1001100010BD80B50100AF4A50685268126990471F
:1001200001BD38B5AC4C14222100AC4802F002FEEF
:10013000AB4D20882968C880608829688880A54CD4
:100140002868C0882080A748842149004118A64A11
:100150000A80228885235B00C2520023DB430422ED
:10016000842003F01FFA606804214056032804D05D
:100170000020296808802968C88231BD38B5984CAC
:100180002068408B002825D1984D0121280003F0DC
:10019000E9FB002812D10221280003F0E3FB01282B
:1001A0000CD1206840880121014320684180002251
:1001B000D2430121012003F0EFFB0BE08C4803F058
:1001C000F9FE0120216808800022D243002101208D
:1001D00003F0E2FB0023DB4301220021012003F0B6
:1001E000CBFC206800882168C98A884202D002F0CE
:1001F0006EFDFFE731BD10B5C888052802D006287E
:1002000007D041E00022D2430989012003F095FF85
:100210003AE00889002823D003282DD1704C2068AB
:10022000408B01281BD16B482168C98801806D4A29
:100230008421490051186C4B0B80008885235B009A
:10024000D0520023DB430422842003F0ABF962493F
:100250002068C08808801422604802F07BFD12E00C
:1002600000205F49096848830023DB430122002105
:10027000012003F0F1FB06E00023DB434A890989F2
:10028000012003F0E9FBFFE710BD70B5544C206876
:10029000408858490140206841800025ED432B00EB
:1002A00001220121012003F0D7FB4A4840680421C4
:1002B0004056032800D18CE02B00012280218900C8
:1002C000012003F059FC20688021C900405A2168B0
:1002D000488620688021C900405E1E214143D048E5
:1002E00009182B001E2289B2012003F045FC3C2294
:1002F000206821688023DB00C95E3C234B43C01883
:10030000C8494118206806008C36300003F0E0FF31
:100310002B001E224621012003F0D4F82B000122DD
:100320001921012003F0CEF82B0001222021012009
:1003300003F022FC20684021405A21684222885262
:1003400020688021C900405E78214143B6480818E2
:1003500080B221684022895A0A224A4381182B0020
:100360000A2289B2012003F007FC142220682168C8
:100370008023DB00C95EF0234B43C0182168402373
:10038000C95A14234B43C018A849411820680600D5
:100390007836300003F09CFF2B000A223C2101201C
:1003A00003F090F8FF2676002B0001223100012097
:1003B00003F0E2FB0F20216888842B00012231002A
:1003C000012003F07FF82B0001221221012003F00D
:1003D00079F870BDD4070020A439002000F8010886
:1003E00000000020E02C0020015A00000004005012
:1003F000204E0000FDFF000070B50025ED432B00EE
:1004000001220021012003F0B7FB894C20680088FD
:100410002168C98A88420ED02068408802210143A1
:10042000206841802B0001220121012003F014FBF0
:1004300002F04DFCF3E02068C088002826D0206838
:100440005221405A7B49884218DB7B480188226848
:10045000D28891421ED02168C9880180774A8421C0
:1004600049005118764B0B80008885235B00D052E1
:100470002B000422842003F095F80BE02068522121
:10048000405A401C21685222885203E00020216813
:10049000522288522B00012280218900012003F082
:1004A0006BFB20688021C900405E2168498E88422C
:1004B00030D020688021C900405A216848862068D1
:1004C0008021C900405E1E214143554809182B0078
:1004D0001E2289B2012003F04FFB3C2220682168D4
:1004E0008023DB00C95E3C234B43C0184D494118B3
:1004F000206806008C36300003F0EAFE2B001E2236
:100500004621012002F0DEFF2B00012219210120EB
:1005100002F0D8FF2B0001222021012003F02CFB48
:1005200020684021405A21684222895A884237D0A7
:1005300020684021405A2168422288522068802148
:10054000C900405E782141433748081880B22168CD
:100550004022895A0A224A4381182B000A2289B272
:10056000012003F009FB1422206821688023DB00AE
:10057000C95EF0234B43C01821684023C95A142395
:100580004B43C018294941182068040078342000E2
:1005900003F09EFE2B000A223C21012002F092FF74
:1005A000FF26C2362B0001223100012003F0E4FABD
:1005B000FF24D4342B0001222100012003F0DCFAB7
:1005C0002B0001221A21012003F0D6FA2B00012270
:1005D0001821012003F0D0FA2B0001223100012064
:1005E00002F070FF2B0001222100012002F06AFFBF
:1005F0002B0001221A21012002F064FF2B000122AE
:100600001821012002F05EFF2B0001222021012091
:1006100002F058FF2A000121012003F0BDF970BD4E
:10062000070200000E0400009D0200003A050000D1
:1006300000000020DD050000D4070020E02C002091
:10064000015A000070B50020BC4C020023685225FE
:100650005A53CA88052A02D0062A07D011E100227F
:10066000D2430989012003F068FD0AE10A89463A6C
:100670001F2A24D220688022D200805E1E2242439C
:10068000BD4810180989463945183C2220680100E8
:100690008C31206823688024E4001B5F3C245C4389
:1006A0000019B64BC418200003F012FE0023DB43F0
:1006B0000122290089B2012003F0CEF9E0E00A8985
:1006C000002A25D00E2A00D1B0E01D2A55D0802363
:1006D0009B009A4200D0CCE02068008E012808D10F
:1006E0000023DB43012280218900012003F0B4F9BB
:1006F0000DE02068408E21688022D20088520023BD
:10070000DB43012280218900012002F0DBFEB7E0FB
:1007100020680088012818D1B94841682268928869
:1007200002235343C95A0180BA4A8421490051180F
:10073000B94B0B80008885235B00D0520023DB433C
:100740000422842002F02EFF16E02068008E01288B
:1007500007D10023DB4301220021012003F07CF9B3
:100760000AE02068C08A216808800023DB43012258
:100770000021012002F0A6FE82E02168098E0129F5
:100780004AD12168A022895E012903D1082021686D
:10079000088039E02168C88720688021C900405E50
:1007A00078214143A748081880B22168C98F0A22DE
:1007B0004A4381180025ED432B000A2289B201200B
:1007C00003F0DAF91422206821688023DB00C95E77
:1007D000F0234B43C0182168C98F14234B43C01822
:1007E00099494118206806007836300003F070FD02
:1007F0002B000A223C21012002F064FE20687E21A9
:10080000405E001D216808800023DB430122002197
:10081000012003F021F908E0216848870023DB4329
:1008200001221D21012002F04DFE29E02068008EEA
:1008300001281DD12068408880B2C0080100C90786
:10084000C90F00290AD00B20216808800023DB4350
:1008500001220021012003F0FFF809E0392021687E
:1008600008800023DB4301220021012003F0F4F87B
:1008700006E00023DB434A890989012003F0ECF8F4
:10088000FFE770BD00B55E4840680421405603286C
:10089000FFD000BD80B50023DB43012200210120F1
:1008A00003F06AF9C348016809880068C08A814278
:1008B00002D002F00CFAFFE701BD38B5C888052860
:1008C00002D0062807D037E00022D2430989012050
:1008D00003F033FC30E0088946381F2824D217483B
:1008E00002688023DB00D25E1E235343224A9A18FB
:1008F0000989463954183C2201688C310368006824
:100900008025ED00405F3C25454358191B4BC51819
:10091000280003F0DDFC0023DB430122210089B223
:10092000012003F099F806E00023DB434A89098996
:10093000012003F091F8FFE731BD00000000002026
:1009400000B52F484068042140560328FFD000BD61
:1009500080B50023DB4301220021012003F00CF9C4
:100960009448016809880068C08A814202D002F078
:10097000AEF9FFE701BD0000070200000E04000011
:1009800038B5C888052802D0062807D037E00022ED
:10099000D2430989012003F0D0FB30E008894638B2
:1009A0001F2824D2834802688023DB00D25E1E23E6
:1009B0005343814A9A180989463954183C220168E0
:1009C0008C31036800688025ED00405F3C2545437D
:1009D0005819CA4BC518280003F07AFC0023DB43E2
:1009E0000122210089B2012003F036F806E000233D
:1009F000DB434A890989012003F02EF8FFE731BD66
:100A0000D407002000B5C848406804214056032898
:100A1000FFD000BDE02C0020015A000080B500236B
:100A2000DB4301220021012003F0A6F861480168A0
:100A300009880068C08A814202D002F048F9FFE7C5
:100A400001BD00009D0200003A05000070B50D00D8
:100A5000E888052802D0062807D08EE00022D2437D
:100A60002989012003F069FB87E028891E2802D02C
:100A70003F2815D052E04F480168A022895E012925
:100A800003D108210068018002E001210068018093
:100A90000023DB4301220021012002F0DDFF6CE096
:100AA0001422444C20680100783120682368802695
:100AB000F6009B5FF0265E4380192368DB8F1426C7
:100AC0005E438019994BC618300003F001FC206882
:100AD0008021C900405E782141439548081880B2C2
:100AE0002168C98F0A224A43801829893C39451850
:100AF00020687E21405E001D216808800024E443B8
:100B0000230001220021012002F0A6FF2300012280
:100B1000290089B2012002F09FFF2EE01422254C0B
:100B2000206801007831206823688026F6009B5FEA
:100B3000F0265E4380192368DB8F14265E438019FC
:100B40007A4BC618300003F0C3FB20688021C9002F
:100B5000405E782141437648081880B22168C98FE9
:100B60000A224A43801829893C3941180023DB4373
:100B7000012289B2012002F06FFF70BD80B5002311
:100B8000DB430A223C21012002F09CFC66484068BD
:100B9000042140560328FFD001BD80B5BF4801683D
:100BA00009880068C08A814202D002F090F8FFE70D
:100BB00001BD0000000000200702000070B50D001C
:100BC000E888052802D0062807D08EE00022D2430C
:100BD0002989012003F0B1FA87E028891E2802D074
:100BE0003F2815D052E0AD480168A022895E012956
:100BF00003D108210068018002E001210068018022
:100C00000023DB4301220021012002F025FF6CE0DC
:100C10001422A24C206801007831206823688026C5
:100C2000F6009B5FF0265E4380192368DB8F142655
:100C30005E4380193D4BC618300003F049FB206825
:100C40008021C900405E782141433948081880B2AC
:100C50002168C98F0A224A43801829893C394518DE
:100C600020687E21405E001D216808800024E44346
:100C7000230001220021012002F0EEFE23000122C8
:100C8000290089B2012002F0E7FE2EE01422834CF5
:100C9000206801007831206823688026F6009B5F79
:100CA000F0265E4380192368DB8F14265E4380198B
:100CB0001E4BC618300003F00BFB20688021C900D2
:100CC000405E782141431A48081880B22168C98FD4
:100CD0000A224A43801829893C3941180023DB4302
:100CE000012289B2012002F0B7FE70BD00B50E48A6
:100CF0004068042140560328FFD000BD0E040000C8
:100D000080B50023DB4301220021012002F034FFE3
:100D10006248016809880068C08A814202D001F0F7
:100D2000D6FFFFE701BD0000D40700203A05000010
:100D30009D02000070B50D00E888052802D0062845
:100D400007D08EE00022D2432989012003F0F5F973
:100D500087E028891E2802D03F2815D052E04F484E
:100D60000168A022895E012903D108210068018061
:100D700002E00121006801800023DB430122002101
:100D8000012002F069FE6CE01422444C206801004E
:100D90007831206823688026F6009B5FF0265E434A
:100DA00080192368DB8F14265E438019A34BC61875
:100DB000300003F08DFA20688021C900405E782160
:100DC00041439F48081880B22168C98F0A224A43CC
:100DD000801829893C39451820687E21405E001D15
:100DE000216808800024E44323000122002101201F
:100DF00002F032FE23000122290089B2012002F014
:100E00002BFE2EE01422254C20680100783120684A
:100E100023688026F6009B5FF0265E4380192368D6
:100E2000DB8F14265E438019844BC618300003F014
:100E30004FFA20688021C900405E782141438048F4
:100E4000081880B22168C98F0A224A43801829896C
:100E50003C3941180023DB43012289B2012002F012
:100E6000FBFD70BD80B50023DB430A223C2101203D
:100E700002F028FBCD484068042140560328FFD0EB
:100E800001BD80B50548016809880068C08A8142B3
:100E900002D001F01CFFFFE701BD000000000020B0
:100EA00070B50D00E888052802D0062807D08EE02E
:100EB0000022D2432989012003F03FF987E02889E5
:100EC0001E2802D03F2815D052E0CF480168A0224A
:100ED000895E012903D108210068018002E0012117
:100EE000006801800023DB4301220021012002F081
:100EF000B3FD6CE01422C44C2068010078312068F6
:100F000023688026F6009B5FF0265E4380192368E5
:100F1000DB8F14265E438019484BC618300003F05F
:100F2000D7F920688021C900405E782141434448B8
:100F3000081880B22168C98F0A224A43801829897B
:100F40003C39451820687E21405E001D21680880DC
:100F50000024E443230001220021012002F07CFD53
:100F600023000122290089B2012002F075FD2EE044
:100F70001422A54C2068010078312068236880265F
:100F8000F6009B5FF0265E4380192368DB8F1426F2
:100F90005E438019294BC618300003F099F9206888
:100FA0008021C900405E782141432548081880B25D
:100FB0002168C98F0A224A43801829893C3941187F
:100FC0000023DB43012289B2012002F045FD70BD00
:100FD00000B576484068042140560328FFD000BD84
:100FE00038B5002528000024E44323000122002115
:100FF000012002F0C1FD8448016809880268D28A94
:10100000914202D001F063FE17E001680D8707E00E
:101010000168098F0122AA400A4301680A876D1CF2
:10102000290089B20268A223D25E9142F0DB23003C
:1010300001221C21012002F045FA31BD3A050000D1
:101040009D02000070B50C00E088052802D006283B
:1010500007D0A1E00022D2432189012003F06DF8DE
:101060009AE02089002869D01F2802D0512840D05A
:101070008AE0654C20688021C900405E78214143A8
:10108000BD48081880B22168C98F0A224A438118D6
:101090000025ED432B000A2289B2012002F06CFDED
:1010A0001422206821688023DB00C95EF0234B43B3
:1010B000C0182168C98F14234B43C018B94941187F
:1010C000206806007836300003F002F92B000A226F
:1010D0003C21012002F0F6F920687E21405E001DCF
:1010E000216808802B0001220021012002F0B4FCBD
:1010F00051E0454801688022D200895E1E224A43A1
:10110000B94951182289463A8C183C2201688C3121
:10111000036800688025ED00405F3C254543581971
:10112000BC4BC518280003F0D3F80023DB43012291
:10113000210089B2012002F08FFC2CE014223248F9
:10114000016803688025ED005B5FF0255D43491968
:10115000036840255B5B14255D434919914BC91811
:10116000006805007835280003F0B2F80025ED434B
:101170002B000A223C21012002F0A4F92B000122BD
:101180000021012002F068FC0023DB4362892189F1
:10119000012002F061FCFFE770BD00B50348406824
:1011A000042140560328FFD000BD0000D4070020D2
:1011B00010B50024E443230001220021012002F0A5
:1011C000DBFC1148016809880068C08A814202D0AE
:1011D00001F07DFD17E0230001221521012002F01E
:1011E000CBFC230001221621012002F0C5FC2300C4
:1011F00001221521012002F065F9230001221621A8
:10120000012002F05FF910BD0000002080B5C88801
:10121000052802D0062807D00EE00022D243098913
:10122000012002F08AFF07E00023DB434A89098995
:10123000012002F011FCFFE701BD00B5A84840689D
:10124000042140560328FFD000BD80B50023DB43B6
:1012500001220021012002F08FFCA24801680988C8
:101260000068C08A814202D001F031FDFFE701BD74
:1012700080B5C888052802D0062807D00EE00022D5
:10128000D2430989012002F058FF07E00023DB4325
:101290004A890989012002F0DFFBFFE701BD00B5A3
:1012A0008F484068042140560328FFD000BD80B518
:1012B0000023DB4301220021012002F05DFC89486C
:1012C000016809880068C08A814202D001F0FFFCF1
:1012D000FFE701BD80B5C888052802D0062807D0E1
:1012E0000EE00022D2430989012002F026FF07E028
:1012F0000023DB434A890989012002F0ADFBFFE7A7
:1013000001BD00B576484068042140560328FFD04F
:1013100000BD80B50023DB4301220021012002F043
:101320002BFC7048016809880068C08A814202D09D
:1013300001F0CDFCFFE701BD80B5C888052802D0CB
:10134000062807D00EE00022D2430989012002F0CE
:10135000F4FE07E00023DB434A890989012002F0FB
:101360007BFBFFE701BD00B55D48406804214056A6
:101370000328FFD000BD00009D02000080B50023BF
:10138000DB4301220021012002F0F6FB55480168F1
:1013900009880068C08A814202D001F098FCFFE70A
:1013A00001BD00003A05000080B5C888052802D0BC
:1013B000062807D00EE00022D2430989012002F05E
:1013C000BCFE07E00023DB434A890989012002F0C3
:1013D00043FBFFE701BD00B541484068042140568A
:1013E0000328FFD000BD00000702000080B50023E5
:1013F000DB4301220021012002F0BEFB39480168D5
:1014000009880068C08A814202D001F060FCFFE7D1
:1014100001BD00000E04000080B5C888052802D078
:10142000062807D00EE00022D2430989012002F0ED
:1014300084FE07E00023DB434A890989012002F08A
:101440000BFBFFE701BD00B525484068042140566D
:101450000328FFD000BD80B50023DB43012200211B
:10146000012002F089FB1F48016809880068C08AD2
:10147000814202D001F02BFCFFE701BD80B5C88896
:10148000052802D0062807D00EE00022D2430989A1
:10149000012002F052FE07E00023DB434A8909895C
:1014A000012002F0D9FAFFE701BD00B50C48406801
:1014B000042140560328FFD000BD80B50023DB4344
:1014C00001220021012002F057FB0648016809882B
:1014D0000068C08A814202D001F0F9FBFFE701BD3C
:1014E000D40700200000002080B5C888052802D05D
:1014F000062807D022E00022D2430989012002F009
:101500001CFE1BE008890E2810D1B3480168898BA6
:10151000B24A914209D11321006801800023DB43C4
:1015200001220021012002F097FA06E00023DB43AC
:101530004A890989012002F08FFAFFE701BD00B551
:10154000A7484068042140560328FFD000BD80B55D
:101550000023DB4301220021012002F00DFB9E4805
:10156000016809880068C08A814202D001F0AFFB9F
:10157000FFE701BD80B5C888052802D0062807D03E
:101580000EE00022D2430989012002F0D6FD07E0D7
:101590000023DB434A890989012002F05DFAFFE755
:1015A00001BD00B58E484068042140560328FFD095
:1015B00000BD80B50023DB4301220021012002F0A1
:1015C000DBFA8548016809880068C08A814202D038
:1015D00001F07DFBFFE701BD80B5C888052802D07A
:1015E000062807D00EE00022D2430989012002F02C
:1015F000A4FD07E00023DB434A890989012002F0AA
:101600002BFAFFE701BD10B50024E443230032228A
:101610006521012002F0B0FA230032226521012069
:1016200001F050FF6E484068042140560328FFD067
:1016300010BD80B50023DB4301220021012002F010
:101640009BFA6548016809880068C08A814202D017
:1016500001F03DFBFFE701BD80B5C888052802D039
:10166000062807D00EE00022D2430989012002F0AB
:1016700064FD07E00023DB434A890989012002F069
:10168000EBF9FFE701BD10B50024E44323000A2273
:101690009721012002F070FA23000A2297210120ED
:1016A00001F010FF4E484068042140560328FFD047
:1016B00010BD80B50023DB4301220021012002F090
:1016C0005BFA4548016809880068C08A814202D0F7
:1016D00001F0FDFAFFE701BD80B5C888052802D0FA
:1016E000062807D00EE00022D2430989012002F02B
:1016F00024FD07E00023DB434A890989012002F029
:10170000ABF9FFE701BD10B50024E44323000A2232
:10171000A121012002F030FA23000A22A121012098
:1017200001F0D0FE2E484068042140560328FFD027
:1017300010BD80B50023DB4301220021012002F00F
:101740001BFA2548016809880068C08A814202D0D6
:1017500001F0BDFAFFE701BD80B5C888052802D0B9
:10176000062807D00EE00022D2430989012002F0AA
:10177000E4FC07E00023DB434A890989012002F0E9
:101780006BF9FFE701BD10B50024E44323000A22F2
:10179000B521012002F0F0F923000A22B521012031
:1017A00001F090FE0E484068042140560328FFD007
:1017B00010BD80B50023DB4301220021012002F08F
:1017C000DBF90548016809880068C08A814202D0B7
:1017D00001F07DFAFFE701BD000000206C0E000063
:1017E000D407002080B5C888052802D0062807D075
:1017F0000EE00022D2430989012002F09EFC07E09E
:101800000023DB4302220989012002F025F9FFE7CA
:1018100001BD10B50024E44323001422BF210120A0
:1018200002F0AAF923001422BF21012001F04AFE90
:10183000B5484068042140560328FFD010BD80B54C
:101840000023DB4301220021012002F095F9AF487B
:10185000016809880068C08A814202D001F037FA25
:10186000FFE701BD80B5C888052802D0062807D04B
:101870000EE00022D2430989012002F05EFC07E05D
:101880000023DB434A890989012002F0E5F8FFE7DC
:1018900001BD10B50024E44323001E22D321012002
:1018A00002F06AF923001E22D321012001F00AFE72
:1018B00095484068042140560328FFD010BD80B5EC
:1018C0000023DB4301220021012002F055F98F485B
:1018D000016809880068C08A814202D001F0F7F9E6
:1018E000FFE701BD80B5C888052802D0062807D0CB
:1018F0000EE00022D2430989012002F01EFC07E01D
:101900000023DB434A890989012002F0A5F8FFE79B
:1019100001BD10B50024E44323000A22F121012077
:1019200002F02AF923000A22F121012001F0CAFD68
:1019300075484068042140560328FFD010BD80B58B
:101940000023DB4301220021012002F015F96F483A
:10195000016809880068C08A814202D001F0B7F9A5
:10196000FFE701BD80B5C888052802D0062807D04A
:101970000EE00022D2430989012002F0DEFB07E0DD
:101980000023DB434A890989012002F065F8FFE75B
:1019900001BD10B50024E44323001422FB210120E3
:1019A00002F0EAF823001422FB21012001F08AFD55
:1019B00055484068042140560328FFD010BD10B59B
:1019C0000024E443230001220021012002F0D4F886
:1019D0004E48016809880068C08A814202D001F03F
:1019E00076F90BE0230001221321012002F0C4F854
:1019F000230001221321012001F064FD10BD80B5F8
:101A0000C888052802D0062807D00EE00022D2435D
:101A10000989012002F091FB07E00023DB434A899A
:101A20000989012002F018F8FFE701BD38B5FF254C
:101A300010350024E44323000A222900012002F08B
:101A40009BF823000A222900012001F03BFD2E48CB
:101A50004068042140560328FFD031BD80B50023E3
:101A6000DB4301220021012002F086F827480168AB
:101A700009880068C08A814202D001F028F9FFE796
:101A800001BD80B5C888052802D0062807D00EE021
:101A90000022D2430989012002F04FFB07E0002316
:101AA000DB434A890989012001F0D6FFFFE701BD28
:101AB00038B5FF251A350024E44323000A22290003
:101AC000012002F059F823000A222900012001F028
:101AD000F9FC0D484068042140560328FFD031BD71
:101AE00080B50023DB4301220021012002F044F8ED
:101AF0000648016809880068C08A814202D001F066
:101B0000E6F8FFE701BD0000D40700200000002038
:101B100080B5C888052802D0062807D00EE000222C
:101B2000D2430989012002F008FB07E00023DB43D0
:101B30004A890989012001F08FFFFFE701BD38B50F
:101B4000FF2524350024E44323000A222900012034
:101B500002F012F823000A222900012001F0B2FC51
:101B6000BF484068042140560328FFD031BD80B5EE
:101B70000023DB4301220021012001F0FDFFB948D1
:101B8000016809880068C08A814202D001F09FF88C
:101B9000FFE701BD80B5C888052802D0062807D018
:101BA0000EE00022D2430989012002F0C6FA07E0C4
:101BB0000023DB434A890989012001F04DFFFFE73B
:101BC00001BD38B5FF252E350024E44323000A2249
:101BD0002900012001F0D0FF23000A222900012062
:101BE00001F070FC9E484068042140560328FFD055
:101BF00031BD80B50023DB4301220021012001F02B
:101C0000BBFF9848016809880068C08A814202D0F9
:101C100001F05DF8FFE701BD80B5C888052802D056
:101C2000062807D00EE00022D2430989012002F0E5
:101C300084FA07E00023DB434A890989012001F087
:101C40000BFFFFE701BD38B5FF2538350024E4431D
:101C500023000A222900012001F08EFF23000A221E
:101C60002900012001F02EFC7D48406804214056E7
:101C70000328FFD031BD80B50023DB4301220021C2
:101C8000012001F079FF7748016809880068C08A5F
:101C9000814202D001F01BF8FFE701BD80B5C88882
:101CA000052802D0062807D00EE00022D243098979
:101CB000012002F042FA07E00023DB434A89098948
:101CC000012001F0C9FEFFE701BD38B5FF2542350F
:101CD0000024E443230014222900012001F04CFFDA
:101CE000230014222900012001F0ECFB5C4840682D
:101CF000042140560328FFD031BD80B50023DB43CB
:101D000001220021012001F037FF564801680988AF
:101D10000068C08A814202D000F0D9FFFFE701BD10
:101D200080B5C888052802D0062807D00EE000221A
:101D3000D2430989012002F000FA07E00023DB43C7
:101D40004A890989012001F087FEFFE701BD38B506
:101D5000FF2556350024E4432300142229000120E6
:101D600001F00AFF230014222900012001F0AAFB40
:101D70003B484068042140560328FFD031BD10B5D0
:101D80000024E443230001220021012001F0F4FE9D
:101D90003448016809880068C08A814202D000F096
:101DA00096FF0BE0230002221021012001F0E4FE47
:101DB000230002221021012001F084FB10BD80B518
:101DC000C888052802D0062807D00EE00022D2439A
:101DD0000989012002F0B1F907E00023DB434A89B9
:101DE0000989012001F038FEFFE701BD38B5FF2564
:101DF0006A350024E44323000A222900012001F06F
:101E0000BBFE23000A222900012001F05BFB1448DD
:101E10004068042140560328FFD031BD38B5002466
:101E2000E443230001220021012001F0A5FE0D481A
:101E3000016809880068C08A814202D000F047FF2B
:101E40000DE0FF256A3523000A222900012001F058
:101E500093FE23000A222900012001F033FB31BD4B
:101E6000D40700200000002080B5C888052802D0D3
:101E7000062807D00EE00022D2430989012002F093
:101E80005CF907E00023DB434A890989012001F05E
:101E9000E3FDFFE701BD38B5FF2574350024E443B9
:101EA00023000A222900012001F066FE23000A22F5
:101EB0002900012001F006FBB94840680421405682
:101EC0000328FFD031BD80B50023DB430122002170
:101ED000012001F051FEB348016809880068C08AFA
:101EE000814202D000F0F3FEFFE701BD80B5C88853
:101EF000052802D0062807D00EE00022D243098927
:101F0000012002F01AF907E00023DB434A8909891E
:101F1000012001F0A1FDFFE701BD38B5FF257E35A9
:101F20000024E44323001E222900012001F024FEA6
:101F300023001E222900012001F0C4FA98484068BD
:101F4000042140560328FFD031BD80B50023DB4378
:101F500001220021012001F00FFE9248016809884A
:101F60000068C08A814202D000F0B1FEFFE701BDE7
:101F700080B5C888052802D0062807D00EE00022C8
:101F8000D2430989012002F0D8F807E00023DB439F
:101F90004A890989012001F05FFDFFE701BD38B5DD
:101FA000FF259C350024E44323001422290001204E
:101FB00001F0E2FD230014222900012001F082FA41
:101FC00077484068042140560328FFD031BD80B5D2
:101FD0000023DB4301220021012001F0CDFD7148E7
:101FE000016809880068C08A814202D000F06FFE53
:101FF000FFE701BD80B5C888052802D0062807D0B4
:102000000EE00022D2430989012002F096F807E091
:102010000023DB434A890989012001F01DFDFFE708
:1020200001BD38B5FF25B0350024E44323000A2262
:102030002900012001F0A0FD23000A22290001202F
:1020400001F040FA56484068042140560328FFD06A
:1020500031BD80B50023DB4301220021012001F0C6
:102060008BFDCA48016809880068C08A814202D095
:1020700000F02DFEFFE701BD80B5C888052802D01D
:10208000062807D00EE00022D2430989012002F081
:1020900054F807E00023DB434A890989012001F055
:1020A000DBFCFFE701BD38B5FF25BA350024E4436A
:1020B00023001E222900012001F05EFD23001E22C4
:1020C0002900012001F0FEF93548406804214056FE
:1020D0000328FFD031BD80B50023DB43012200215E
:1020E000012001F049FDA948016809880068C08AFB
:1020F000814202D000F0EBFDFFE701BD80B5C8884A
:10210000052802D0062807D00EE00022D243098914
:10211000012002F012F807E00023DB434A89098915
:10212000012001F099FCFFE701BD38B5FF25D83546
:102130000024E443230010222900012001F01CFDAB
:10214000230010222900012001F0BCF91448406846
:10215000042140560328FFD031BD38B50024E443A4
:10216000230001220021012001F006FD87480168BB
:1021700009880068C08A814202D000F0A8FD0DE005
:10218000FF25D835230010222900012001F0F4FC9E
:10219000230010222900012001F094F931BD000034
:1021A000D407002000000020F8B50C00E0880528C6
:1021B00002D0062807D091E00022D24321890120D5
:1021C00001F0BBFF8AE02089282800D07EE06F4D17
:1021D00028684E21405A00280AD0401E012840D9C4
:1021E000801E05D0401E01283BD9801E03286DD8D3
:1021F000674829684E22895A02224A438018CD49ED
:102200002A685023D25A4252FF26D8360027FF436D
:102210003B00012228684E21405A811989B20120D1
:1022200001F01AFC28684E21405A801980B200F053
:102230000FFEC14841682A68928802235343C95A55
:102240000180CD4A842149005118D64B0B8000886B
:1022500085235B00D0523B000422842001F0A2F9C8
:1022600034E04B4829684E22895A02224A4380189A
:10227000B0492A685023D25A42520026F64333000E
:10228000012228684E21405AFF21D831411889B2D5
:10229000012001F0E1FBA84841682A6892880223E6
:1022A0005343C95A01800188491C0180B24A8421E4
:1022B00049005118BB4B0B80008885235B00D0522E
:1022C00033000422842001F06DF9FFE70023DB4393
:1022D00062892189012001F0BFFBFFE7F1BD70B5E4
:1022E000FF26E8360024E4432300102231000120B9
:1022F00001F042FCFF25F8352300062229000120C9
:1023000001F03AFC230010223100012001F0DAF83C
:10231000230006222900012001F0D4F886484068F5
:10232000042140560328FFD070BD70B50024E4435B
:10233000230001220021012001F01EFC1348016846
:1023400009880068C08A814202D000F0C0FC1BE00E
:10235000FF26E836230010223100012001F00CFC9A
:10236000FF25F835230006222900012001F004FC96
:10237000230010223100012001F0A4F823000622DE
:102380002900012001F09EF870BD0000000000202F
:10239000A809002070B50C00E088052802D00628A6
:1023A00007D0C5E00022D2432189012001F0C5FEFB
:1023B000BEE02089282800D0B2E0B44D28684E2124
:1023C000405A103801280FD9801E02283ED9C01E5D
:1023D000012809D90B386ED0401E05D0401E0228B6
:1023E00034D9C01E00D09BE0C04829684E22895ACB
:1023F00002224A4380184F492A685023D25A425237
:102400000026F6433300012228684E21405AFF215E
:10241000D831411889B2012001F01EFB46484168BD
:102420002A68928802235343C95A0180524A842160
:10243000490051185B4B0B80008885235B00D0520C
:1024400033000422842001F0ADF869E0A748296830
:102450004E22895A02224A43801836492A6850235C
:10246000D25A42520026F6433300012228684E21F8
:10247000405AFF21D831411889B2012001F0ECFA0D
:102480002D4841682A68928802235343C95A018023
:102490000188491C0180384A842149005118414B68
:1024A0000B80008885235B00D052330004228420F7
:1024B00001F078F834E08D4829684E22895A0222CA
:1024C0004A4380181B492A685023D25A4252002698
:1024D000F6433300012228684E21405AFF21D831AB
:1024E000411889B2012001F0B7FA134841682A68FF
:1024F000928802235343C95A01800188891C0180B4
:102500001D4A842149005118264B0B8000888523E1
:102510005B00D05233000422842001F043F8FFE72F
:102520000023DB4362892189012001F095FAFFE74E
:1025300070BD0000AE030000D407002038B5FF25B1
:10254000FE350024E44323000A222900012001F083
:1025500013FB23000A222900012000F0B3FF23000F
:1025600001220221012000F0ADFFBE484068042195
:1025700040560328FFD031BDE02C002080B5002359
:10258000DB4301220021012001F0F6FA3F480168F7
:1025900009880068C08A814202D000F098FBFFE7FA
:1025A00001BD0000015A000080B5C888052802D08E
:1025B000062807D034E00022D2430989012001F027
:1025C000BCFD2DE00889022802D00E280CD01FE0A7
:1025D000AF492E480068808848801422AD4800F03A
:1025E000B9FB00F074FB1AE028480168898BC14AE6
:1025F00091420CD1012102685183002100680180C1
:102600000023DB4301220021012001F025FA06E02E
:102610000023DB434A890989012001F01DFAFFE705
:1026200001BD80B519480168498804220A43006841
:1026300042800022D2430121012001F0ADF98948F6
:102640004068042140560328FFD001BD10B5002486
:10265000E443230001220021012001F08DFA0B4800
:10266000016809880068C08A814202D000F02FFB0F
:102670000BE0230002222521012001F07DFA230036
:1026800002222521012000F01DFF10BD00000020C6
:1026900010B5C888052802D0062807D025E00022FA
:1026A000D2430989012001F048FD1EE00889002875
:1026B00013D1B44801684988B34A0A40006842808F
:1026C0000024E44322000121012001F065F92200E9
:1026D0000021012001F060F906E00023DB434A8974
:1026E0000989012001F0B8F9FFE710BDA809002011
:1026F00080B5A4480168498804220A4300684280E2
:102700000022D2430121012001F046F955484068DA
:10271000042140560328FFD001BD10B50024E44336
:10272000230001220021012001F026FA95480168CA
:1027300009880068C08A814202D000F0C8FA0BE024
:10274000230002222521012001F016FA2300022293
:102750002521012000F0B6FE10BD10B5C88805285F
:1027600002D0062807D025E00022D24309890120A3
:1027700001F0E3FC1EE00889002813D181480168BC
:102780004988814A0A40006842800024E4432200CC
:102790000121012001F000F922000021012001F0B7
:1027A000FBF806E00023DB434A890989012001F098
:1027B00053F9FFE710BD10B50024E4432300322293
:1027C0006521012001F0D8F9230032226521012082
:1027D00000F078FE23484068042140560328FFD0CB
:1027E00010BD80B50023DB4301220021012001F050
:1027F000C3F96448016809880068C08A814202D030
:1028000000F065FAFFE701BD80B5C888052802D051
:10281000062807D00EE00022D2430989012001F0EA
:102820008CFC07E00023DB434A890989012001F081
:1028300013F9FFE701BD10B50024E44323000A2289
:10284000F121012001F098F923000A22F121012051
:1028500000F038FE03484068042140560328FFD0AA
:1028600010BD0000D407002080B50023DB43012207
:102870000021012001F080F94248016809880068C0
:10288000C08A814202D000F022FAFFE701BD0000B9
:10289000A439002000F8010880B5C888052802D0B6
:1028A000062807D00EE00022D2430989012001F05A
:1028B00044FC07E00023DB434A890989012001F039
:1028C000CBF8FFE701BD10B50024E44323000A2242
:1028D000AB21012001F050F923000A22AB21012095
:1028E00000F0F0FDB5484068042140560328FFD0B1
:1028F00010BD0000CE1B000080B50023DB43012289
:102900000021012001F038F91E480168098800689B
:10291000C08A814202D000F0DAF9FFE701BD80B53C
:10292000C888052802D0062807D00EE00022D2432E
:102930000989012001F001FC07E00023DB434A89FB
:102940000989012001F088F8FFE701BD00B59B4827
:102950004068042140560328FFD000BD80B5002305
:10296000DB4301220021012001F006F9054801683E
:1029700009880068C08A814202D000F0A8F9FFE708
:1029800001BD000000000020FBFF000010B50800A2
:10299000C188052902D0062907D023E00022D243AE
:1029A0000189012001F0C9FB1CE0FF21DA31028915
:1029B0008A420FD10024E4432200012000F0ECFF02
:1029C0000120B6490968088022000021012000F09A
:1029D000E3FF06E00023DB4342890189012001F087
:1029E0003BF8FFE710BD38B5FF25FE350024E44372
:1029F000230001222900012001F0BEF8230001225A
:102A00002900012000F05EFD6C484068042140561A
:102A10000328FFD031BD80B50023DB430122002114
:102A2000012001F0A9F8C148016809880068C08A3E
:102A3000814202D000F04BF9FFE701BD80B5C888A4
:102A4000052802D0062807D00EE00022D2430989CB
:102A5000012001F072FB07E00023DB434A8909896A
:102A6000012000F0F9FFFFE701BD00B553484068C1
:102A7000042140560328FFD000BD80B50023DB436E
:102A800001220021012001F077F8A8480168098897
:102A90000068C08A814202D000F019F9FFE701BD49
:102AA00010B5C888052802D0062807D02FE00022DC
:102AB000D2430989012001F040FB28E008890E2853
:102AC0001DD176480168898B994A914216D10B2114
:102AD000026811800168498808220A430068428020
:102AE0000024E443230001220121012000F0B4FF6F
:102AF000230001220021012000F0AEFF06E00023A8
:102B0000DB434A890989012000F0A6FFFFE710BDD9
:102B100010B50024E443230001222221012001F00A
:102B20002BF8230001222221012000F0CBFC2348B6
:102B30004068042140560328FFD010BD80B5002313
:102B4000DB4301220021012001F016F877480168DB
:102B500009880068C08A814202D000F0B8F8FFE717
:102B600001BD80B5C888052802D0062807D00EE030
:102B70000022D2430989012001F0DFFA07E0002397
:102B8000DB434A890989012000F066FFFFE701BDA8
:102B900010B50024E443230001222321012000F08A
:102BA000EBFF230001222321012000F08BFC0348CE
:102BB0004068042140560328FFD010BDD4070020F0
:102BC00010B50024E443230001220021012000F07D
:102BD000D3FFD348016809880068C08A814202D0C7
:102BE00000F075F80BE0230001222321012000F002
:102BF000C3FF230001222321012000F063FC10BD4C
:102C000080B5C888052802D0062807D00EE000222B
:102C1000D2430989012001F090FA07E00023DB4349
:102C20004A890989012000F017FFFFE701BD10B5AF
:102C30000024E443230001222321012000F09CFF13
:102C4000230001222321012000F03CFCB048406811
:102C5000042140560328FFD010BD10B50024E443E2
:102C6000230001220021012000F086FFAC4801680A
:102C700009880068C08A814202D000F028F80BE081
:102C8000230001222321012000F076FF23000122EE
:102C90002321012000F016FC10BD000000000020E0
:102CA00080B5C888052802D0062807D00EE000228B
:102CB000D2430989012001F040FA07E00023DB43F9
:102CC0004A890989012000F0C7FEFFE701BD10B560
:102CD0008F4803214268117114490A6812880B68F1
:102CE000DA828C4A0B68DB8A14245C431219426036
:102CF00042680968898802234B43D15A0180864A79
:102D00008421490051188A4B0B80008885235B0081
:102D1000D0520024E44323000422842000F042FC2B
:102D200022000B21012000F037FE10BD0000002022
:102D3000280C000030B5002304E004880C80801CBF
:102D4000891C5B1C1C00E4B21500A4B2ADB2AC42FD
:102D5000F3D330BDFEB506000F0014000025029528
:102D60002800280001F0FEFA6C48022101603F2192
:102D700041600121816002A901F068FB002864D153
:102D8000200080B2800869468880A4B268468088A6
:102D90008000201A694648806846057035003C006E
:102DA00022E020880021628800231B04160C334394
:102DB000120402430B43A0880021010000201043AD
:102DC0001943E28800231304002202430B43290025
:102DD000012001F095FA002801D108350834684631
:102DE0000078401C69460870684600786946898802
:102DF00080B28842D5D368464088002825D02288F2
:102E00000023608800210904060C314300041043AC
:102E10001943A28800231300002202430B43E688D3
:102E200000273704002616431F4342A003C86A4602
:102E3000528810235A4301F069FB304339430200A2
:102E40000B002900012001F05BFA01F09CFAF7BDAC
:102E500080B580B2FF21D831401A1BD0C01E04D0EB
:102E6000C01E3FD0401E29D050E02D492D480A6891
:102E7000ED239B00D25E02235343C05A0968F92216
:102E8000920088520022D243F9214900012000F02B
:102E900083FD3BE0224923480A68234BD25E02238C
:102EA0005343C05A0968F822920088520022D24344
:102EB000F8214900012000F06FFD27E0184919486A
:102EC0000A68EF239B00D25E02235343C05A09686D
:102ED000164A88520022D243FF21F031012000F02F
:102EE0005BFD13E00E490F480A68144BD25E0223C3
:102EF0005343C05A0968FA22920088520022D243F2
:102F0000FA214900012000F047FDFFE701BD000064
:102F1000D407002004000020E02C00206C3A0020A0
:102F200000000020DC070020AE030000DE030000EC
:102F3000015A0000FFFFFFFFFFFFFFFFBA03000081
:102F4000F1B500204E4C01002170010061704D4927
:102F5000852292008A1884239B00CA504A4AC623BD
:102F60009B00CA5086235B00CB188425ED004B5193
:102F700001252E000E712E001E702E008527BF0029
:102F8000CE552E0016702A00404E8A55404A626186
:102F90008A1D22610B603F4A0B68136150613E4AF3
:102FA000096811615061009801F0F9FA0600002EDD
:102FB00002D10520C04327E0B749300001F01AFBD9
:102FC000002807D1BD49300001F09FFBBC4930000B
:102FD00001F0A9FBBB49BC4801F0B3FBBB49C848A1
:102FE00001F0B9FBBA4FC749380001F0AAFB6420D1
:102FF00001F0C6FBA661B448E061C1482062676287
:103000002800207065700020F2BD10B5BE4C2178FC
:10301000012911D10221217060608022120110214A
:10302000A069A3699B6C9847A38962690021A06984
:1030300001F04AFB012000E0002010BDE0B501A82E
:1030400000900023DB4306220421AF48C06901F051
:103050005DFD0EBDE0B5030001A800900622012130
:10306000A948C06901F052FD0EBDE0B5030001A8FA
:10307000009006220221A448C06901F047FD0EBD60
:10308000CC39002048190020641C002024040000D2
:10309000342E0020143A00202C3A0020F8B5060007
:1030A0000D00994C607801280FD0022800D1A0E0D3
:1030B000032800D1ACE0042800D1BAE0052800D1F3
:1030C000E6E0072800D1E4E0E4E0042D45D2012D3C
:1030D00004D041D3032D26D011D33DE001236A460D
:1030E0000021300001F0CFFA684600785A2805D157
:1030F00001F06EFB0220607001F057FB78E00223C4
:103100006A460021300001F0BEFA684601785A296B
:1031100008D14078A52805D101F05AFB0320607042
:1031200001F043FB64E003236A460021300001F014
:10313000AAFA6D4628785A280DD16878A5280AD1B0
:1031400001F046FBA87860810020BE494871042048
:10315000607001F02AFB4BE04AE003236A4600213D
:10316000300001F090FA684601785A2939D1417847
:10317000A52936D180786081B24F00207871ED1E8C
:103180006089854216D201F023FB2B0022690021C1
:10319000300001F078FA2069401920616089290027
:1031A000401A60817879401978710420607001F0CC
:1031B000FCFA1DE0638922690021300001F063FA06
:1031C0007879618940187871B81D2061002060818C
:1031D0000520607001F0FCFA0121606A01F0B6FA86
:1031E00006E0ED1E2B0022690021300001F04BFAB1
:1031F00050E001236A460021300001F044FA68469D
:103200000078A52801D10320607001F0CEFA41E0DA
:1032100001236A460021300001F035FA6846007843
:1032200060810020874948710420607001F0BDFA78
:1032300030E06089854213D22B00226900213000E2
:1032400001F021FA20694019206160892900401AA3
:1032500060817C4841794919417101F0A6FA16E074
:10326000638922690021300001F00DFA7548417927
:10327000628989184171801D2061002060810520CC
:10328000607001F0A5FA0121606A01F05FFA01E0C7
:1032900000E0FFE70020F2BD0309000010B51A4C62
:1032A00001212170802212011121A3699B6C984792
:1032B0000421E06901F04AFA002010BD9D300108A8
:1032C0009D32010804AF0108843800203CAF01089A
:1032D000E438002010B50C4C00221321A069A3692A
:1032E0009B6C9847802252001021A069A3699B6CB7
:1032F000984771482061002060810120607010BDF6
:10330000B4380020A8AE0108CC390020F8B504007C
:103310006A4F002528002069C0780002208120899A
:103320002169097908432081208980214901401AB7
:1033300020812069407960812069801DE060604EB5
:103340002089B04206DA012001F0EAFD0120A080C8
:10335000208920812089801BB04208D2022001F000
:10336000DFFD0220A08020895549401A2081208954
:103370008849401AB04208D2032001F0D1FD032051
:10338000A08020898349401A2081FA208000218969
:10339000814201DA012054E02189091A814227D2B1
:1033A0002089FA218900401A20810520E080608967
:1033B00002280BDB6289E168380000F063F9012321
:1033C00062892189380001F02FFF0FE0E068407822
:1033D000012802D10120387000E03D70012362898C
:1033E0002189491C89B2380001F01EFF012028E024
:1033F0002189FA22D200891A814201D2012020E0DB
:1034000020896549884201DB0120FFE72089624964
:10341000401A20816089022808D10123628921890C
:10342000491C89B2E06801F063FE07E0012362896C
:103430002189491C89B2E06801F0E9FD0620E0809D
:103440000120F2BD4819002030B50169097806292C
:1034500030D101698978C1800169C9780902018187
:103460000189026912791143018101694979418118
:103470000169891DC1604949028902235343C91862
:103480004289002310E0C468247824020C80C468B8
:10349000641CC4600C88C5682D782C430C80C468FB
:1034A000641CC460891C5B1C1C001500E4B2EDB2F6
:1034B000AC42E8D3012030BD4E190020342F00204B
:1034C00088130000F7B582B01900354F7E690024DB
:1034D0002500E4B26846007A022801DB022554E0A8
:1034E000386A01F03EF9002801D105254DE0684613
:1034F000007A01F015FD6846007A6049414368464C
:1035000080890818832109014018694608805A20DB
:103510003070A52070706846008A02214143C91CA2
:10352000B1708220F0706846008880B2000A307165
:10353000684600887071B01D002369460A8A694692
:103540008989491C89B201F062FD6846008A02211E
:103550004143891DB981684600883881641C200078
:10356000C0B204280DDA0120FFF74FFDFFF766FD1A
:10357000FA208000FFF779FD0121C9438842EDD090
:1035800000E00425386A01F0F6F8280040B205B0E2
:10359000F0BD000010270000B80B0000E02C002058
:1035A000CC390020F1B584B00E001900002E07D1EF
:1035B00000206B4618706B46002018560028FAD081
:1035C00002922F4F7869019000240025029840084C
:1035D0006A461070386A01F0C4F8002801D1052449
:1035E00047E05A2001990870A52001994870029877
:1035F000C01C0199887082200199C8706846008AB1
:1036000080B2000A019908716846008A01994871E0
:103610000198811D002009E0328892B2120A0A70D6
:10362000491C32880A70491CB61C401C02006B46BB
:103630001B78D2B29A42EFD30298801DB8816846B7
:10364000008A38816D1C2800C0B204280DDA0120E0
:10365000FFF7DBFCFFF7F2FCFA208000FFF705FD27
:103660000121C9438842EDD000E00424386A01F00A
:1036700082F8200040B205B0F0BD000088130000C1
:10368000CC390020F8B513005B075B0F6C46237044
:10369000491C6B461B78002B02D092B2120901E044
:1036A00092B2D20800231C000FE02600F6B2875D1C
:1036B0000E78AE403E432700FFB2C655891C6D1EF2
:1036C0002E00F6B2082EF0DB641C25001600EDB2C9
:1036D000F6B2B54205D21D002600F6B285551D0092
:1036E000EEE76946097800290CD008216B461B7863
:1036F000C91A521E1300DBB2C35CFF240C411C40EC
:10370000D2B28454F1BDF1B401684218416848084E
:10371000131800988068C9071ED5494640181BE059
:103720001778521C0770401C761EF9D1002C13D05C
:103730001678521C89080D40032D01D11578521CB2
:10374000290271184D424119A41C05D00D78491C5D
:103750000570401C641EF9D19A420FD01178521C9A
:10376000032503260E4002D11678F61C521C0C09C4
:103770000F2CD9D114780F34521CD5E700980C3097
:10378000F2BC7047F8B50200002332E0052403E0E4
:103790006E4CA242FAD134001F003E4008277E43FF
:1037A000B44004436A489E0804277E438451694C10
:1037B0002068A8434E68F60300D528432060664C75
:1037C0002068A8434E68B60300D528432060634CA8
:1037D0002068A8434E68F60200D528432060604C5C
:1037E0002068A8434E68B60201D505432800206032
:1037F0005B1C0868D840002800D1A6E001240868B6
:1038000025009D400540002DF2D04868022802D0D6
:10381000486812281ED1D808042670431018076A79
:10382000072000970F26B4461F0007400426774361
:103830006646BE40009FB743BC460E691F00384035
:1038400004277843864067463E43D80804277843D8
:103850001018066217680326BC461F000220474363
:103860003000B84067468743009748683040844638
:103870001F00022047436046B840009F3843106055
:103880004868012808D04868022805D048681128EF
:1038900002D0486812281DD19768BC461F0002203C
:1038A00047433000B840674687430097C86884465E
:1038B0001F00022047436046B840009F3843906095
:1038C0005768200098408743486800092040984086
:1038D00038435060D768BC461F0002204743300081
:1038E000B840674687430097886884461F000220D7
:1038F00047436046B840009F3843D0604868C000E6
:1039000000D475E7124884469F0804204743604668
:10391000C05900900F27BC461F00300038400827D0
:103920007843674687400098B843A027FF05BA420E
:1039300001D1002430E7164FBA4200D12CE7154CD4
:10394000A24200D024E7022426E7F1BD000C00507B
:10395000601802408018024084180240001802409B
:103960000418024000B5006989B20840002801D05F
:10397000012000E0002040B200BD00B552B2002A94
:1039800002D089B2816101E089B2816200BD00008C
:103990000004005000080050F8B507000E001000A9
:1039A00000242500EDB23900C9B2022901DB02244E
:1039B00032E001F096FD002801D105242CE0684694
:1039C00001F036FF3800C0B201F0AAFA06200099D3
:1039D0000870300080B2000A0099487030000099E9
:1039E0008870002301223100491C89B20098C01C54
:1039F00001F00DFB052001F01EFF6D1C2800C0B278
:103A0000042809DA082001F035FD01F094FD0400D6
:103A100040B20428F1D0FFE7200040B2F2BD10B55B
:103A200000240988052913D14178090282781143BD
:103A3000491C0123012289B2C01C01F0E8FA0100EF
:103A400049B2002905D040B201F068FF040000E04F
:103A50000324200040B210BDF1B582B00F00160063
:103A6000180000242500EDB26946097A022901DB1D
:103A7000022446E001F035FD002801D1052440E094
:103A8000684601F0D5FE6846007A01F049FA102038
:103A900000990870380080B2000A00994870380018
:103AA00000998870300080B2000A0099C870300018
:103AB000009908713000022148430099487100982C
:103AC000801D00900023320092B23900491C89B257
:103AD000009801F09CFAB6B202207043801D80B2BB
:103AE00001F0A9FE6D1C2800C0B2042809DA0820E4
:103AF00001F0C0FC01F01FFD040040B20428F1D029
:103B0000FFE7200040B2FEBD38B500240888052834
:103B100003D001F09DFE00282AD0684601F088FEFF
:103B2000009840780102009880780143491C009871
:103B3000C078020200980079024300984079C0B230
:103B400013009BB202255D43A8420FD1012392B21C
:103B500089B20098801D01F05AFA010049B200298B
:103B600007D040B201F0DAFE040002E0032400E0D6
:103B70000324200040B232BDF1B582B00F00140022
:103B8000180000252E00F6B26946097A022901DBE9
:103B900002252FE001F0A5FC002801D1052529E030
:103BA000684601F045FE6846007A01F0B9F9032045
:103BB00000990870380080B2000A00994870009897
:103BC0008770200080B2000A0099C87000980471C4
:103BD000052001F030FE761C3000C0B2042809DA5E
:103BE000082001F047FC01F0A6FC050040B20428C3
:103BF000F1D0FFE7280040B2FEBDF8B505000E0089
:103C000000273C0001F024FE002801D03C002FE0FA
:103C1000308802282BDB684601F00AFE00984078C5
:103C20000102009880780143491C0098C078020284
:103C3000009800790243100080B2002815D01000CF
:103C400080B202234343687883420ED1012392B2AB
:103C500089B2A81C01F0DBF9010049B2002907D0A4
:103C600040B201F05BFE040002E0032400E0032404
:103C7000200040B2F2BDF8B505000E0000273C0060
:103C800001F0E6FD002801D03C0043E03088022826
:103C900040DB684601F0CCFD0098407807020098B0
:103CA000807807437F1C0098C0780602009800794E
:103CB0000643009840790102009880790143491C2D
:103CC0000098C07902020098007A024333009BB248
:103CD000022058436B7898421BD1012392B289B2DB
:103CE00000980A3001F093F9010049B2002907D188
:103CF0000123320092B2390089B2A81C01F087F981
:103D0000010049B2002905D040B201F007FE0400CD
:103D100000E00324200040B2F2BDFEE740604168AD
:103D2000016070470268516002680A600160486083
:103D300070474268116042684A604160086070479D
:103D400041680268516001684268116040604168E2
:103D50000160704738B57D48056801F0F1FD040049
:103D6000280001F020FF04204421685428005C3022
:103D700001F0DEFF280002F047FA012807D1982061
:103D80002858002803D1280002F0F4F904E02900A3
:103D900024318548FFF7C6FF200001F0D5FD01F072
:103DA000A2FE31BDF7B504001F00089D099E20004A
:103DB0002430FFF7B3FF029820636763A563A687EB
:103DC000A28F2321A06B02F04BFA784BA06BA18F3E
:103DD0004218121F616B206B02F0C4FAE0620AA85D
:103DE0000078202807DB002069460870694600201B
:103DF00008560028FAD00B980AA909784622A1543F
:103E00000AA909784522A1546065A06500202064B4
:103E100001004422A154982160509C216050002050
:103E20000190002000902300614A210020005C30B6
:103E300001F060FF0020FEBDF0B587B00500002D49
:103E400007D100206C4620706C46002020560028C8
:103E5000FAD00C9C002C07D100206E4630706E46C4
:103E6000002030560028FAD00F9E0E9F0593069230
:103E70000491049A0021280002F058F90396FFB239
:103E800002970D9801900094059B069A04992800CA
:103E9000FFF788FF07B0F0BD2C480068704780B579
:103EA000002807D100216A4611706A460021515648
:103EB0000029FAD04421415C002907D000216A463C
:103EC00011706A46002151560029FAD04621415C02
:103ED0004522815401214522825C91408164022166
:103EE0004422815400F08FF8FFF7D6FF002801D05C
:103EF00001F0F9FD002002BD38B501F021FD0400FC
:103F0000124805684420285C012818D1686AA96A0B
:103F1000884214D028002430FFF712FF29002431F2
:103F20005E484522AA5C08235A438018FFF701FF28
:103F3000200001F009FD01F0D6FD002003E0200083
:103F400001F002FD002032BD000000000C3B00200B
:103F500031B582B001F0F4FC050051480468002C32
:103F600007D10020694608706946002008560028DD
:103F7000FAD0200000F022F802AA002120005C30D4
:103F800001F0C7FF20005C3001F0ECFE280001F0DA
:103F9000DBFC01F0A8FD206C0121C943884201D15E
:103FA0000020206400203EBD783A0020553D0108E5
:103FB0005340010880B5FFF7CBFF02BD38B50400C0
:103FC000002C07D100206946087069460020085679
:103FD0000028FAD04420205C012802D00020C043F1
:103FE00010E001F0ADFC05000220442160542000E7
:103FF00001F0D9FD20005C3001F062FF280001F0E3
:10400000A3FC002032BD38B50400002C07D10020ED
:10401000694608706946002008560028FAD04420F6
:10402000205C022802D00020C04311E001F088FC8F
:10403000050020002430FFF783FE20005C3001F0F3
:104040003FFF280001F080FC200001F087FD0020E8
:1040500032BD1CB50400002C07D100206946087051
:104060006946002008560028FAD04420205C022827
:1040700007D00020694608706946002008560028CD
:10408000FAD00120C043206420002430FFF758FEFE
:10409000200001F063FD01F026FD13BD98330020E0
:1040A0000C3B0020F8B507000D000026340001F09D
:1040B000CFFB002801D034003CE02888022838DB00
:1040C000684601F0B5FB00984078050200988078BA
:1040D00005436D1C0098C0780602009800790643DD
:1040E000700706D0300080B2082102F073F9401C3E
:1040F00004E0300080B2082102F06CF9310089B28E
:10410000002914D07978C0B2884210D1012332003E
:1041100092B2290089B2B81C01F086F8010049B2B8
:10412000002907D040B201F0F9FB040002E00324AB
:1041300000E00324200040B2F2BDF1B582B00F00D0
:10414000100000252C00E4B22E006946097A0229ED
:1041500001DB02263FE001F0C4F9002801D1052669
:1041600039E001A801F064FB6846007A00F0D8FE4F
:10417000052001990870380080B2000A0199487042
:10418000380001998870002301223900491C89B246
:10419000684601F049F868460078012805D1FF20FB
:1041A0000199C8700198057103E00198C5700198E4
:1041B0000571052001F03FFB641C2000C0B20428FB
:1041C00009DA082001F056F901F0B5F9060040B20D
:1041D0000428F1D0FFE7300040B2FEBD38B5002220
:1041E00014000988052928D14178090283781943E8
:1041F000491C0379002B1ED1C378FF2B02D0C37852
:10420000002B18D16B4615005D70C078FF2802D1D5
:104210000120187000E01A700123012289B268465B
:1042200001F002F8010049B2002907D040B201F0C4
:1042300075FB040002E0032400E00324200040B2E8
:1042400032BDF8B5060000240888052803D001F027
:10425000FFFA002838D0684601F0EAFA70780502C3
:10426000B07805436D1CF0780002317908430600F0
:1042700000984779700706D0300080B2082102F01C
:10428000A9F8401C04E0300080B2082102F0A2F836
:10429000310089B2002915D0C0B2FFB2B84211D1A5
:1042A0000123320092B2290089B20098801D00F0EB
:1042B000BBFF010049B2002907D040B201F02EFB3C
:1042C000040002E0032400E00324200040B2F2BD19
:1042D000814202D25318984203D300B502F0EEF89F
:1042E00000BD521E03D38B5C8354521EFBD2704719
:1042F00008B4024B9C4608BC6047C04665090020D4
:10430000F1B50F0014001D00484800214056012857
:1043100001D1022025E001204449087000264348CD
:104320004660FA20800000F03CF8010049B2002904
:1043300014D1380022002B000099012902D100F08D
:104340006AF802E01100FFF7D3FFFA20800000F0C6
:1043500028F837490A68009B9A430A6033490E706F
:1043600040B2F2BD00B5002031490A68002A08D5E4
:10437000334A344B1360344B13600968002900D56D
:10438000012040B200BD00B5012029490A68802300
:104390001B0613430B600968002900D5002040B2BA
:1043A00000BD70B5040002F097F80619234D286887
:1043B000C00309D50020C0438442F7D002F08CF836
:1043C000B042F3D3032025E01B482E68064080212D
:1043D000C905184A13680B403343002B09D0134C0E
:1043E00066683343636028601068014311600120F0
:1043F00010E002F071F806192868400309D5002082
:10440000C0438442F8D002F067F8B042F4D30320EE
:1044100000E0002070BD30B405490C68012525433B
:104420000D600260001D036030BC7047443A0020FC
:104430001420024018200240FAC30000102002405D
:104440000820024023016745AB89EFCDF3B581B069
:104450000600294F00203856012801D1022039E0FA
:104460000120387000247C60FA25AD002800FFF799
:1044700098FF010049B200292AD1009600990968E5
:10448000042905D100F027F82800FFF78AFF1FE074
:104490000021C943029A116000994E6800E0761C21
:1044A00000994968009A926889188E420BD23000B0
:1044B00000F017F82800FFF774FF010049B2002947
:1044C000EDD002990E600D490A6802239A430A60F2
:1044D0003C7040B2FEBD09480168094A0A430260C7
:1044E0007047064A136807491940C0000843064947
:1044F0000143116070470000443A0020142002403C
:104500000400010007FEFFFF02000100D2B2203AC2
:1045100003D301009140002070475242D0415242E3
:10452000203291404140D040904041407047FEE7EA
:1045300070B504001500002C02D10020C04312E029
:104540000E00300000F02BF8002802D00020C043FD
:1045500009E032000421200001F0E8FDE58400209C
:104560002A216054002070BDF8B5214F7C6811E00D
:1045700025001C3D696B080000280AD01026E88C35
:10458000304206D128008847002802D1E88C064333
:10459000EE842468381D8442EAD10020F2BDF8B5CB
:1045A0000700FFF779FC002801D001F022FB104E34
:1045B000746800E02468301D844210D025001C3D42
:1045C00018223900280001F08AFE0028F2D1FFF7F6
:1045D00063FC002801D001F016FB280006E0FFF77D
:1045E0005BFC002801D001F00EFB0020F2BD0000B2
:1045F000F8080020F8B504000F0000263000002C59
:1046000007D131006A4611706A46002151560029CF
:10461000FAD01025E18C29420AD1616B002904D01F
:104620002000616B884700282CD1E18C0D43E58484
:104630000825E18C294205D0218D294202D006208F
:10464000C0431FE0A16B002904D0390089B22000CB
:10465000A26B9047002803D00521C943884211D19D
:104660003D4325852A21615C491C2A22A1542A2127
:10467000615C002906D169460E706A4600215156D8
:104680000029FAD0F2BD38B5002807D100246D46C4
:104690002C706D4600242C57002CFAD02A24045D7F
:1046A000002C05D10020C04301F0C6FD00200AE027
:1046B000046C002C02D0046CA04704E00520C04329
:1046C00001F0BAFD002032BD38B5002807D1002422
:1046D0006D462C706D4600242C57002CFAD02A24ED
:1046E000045D002C05D10020C04301F0A5FD002091
:1046F0000AE0446C002C02D0446CA04704E0052082
:10470000C04301F099FD002032BD80B5002807D1DB
:1047100000226B461A706B4600229A56002AFAD085
:10472000C162002002BD80B5002807D100226B467F
:104730001A706B4600229A56002AFAD001630020B4
:1047400002BD80B5012200F061F901BD80B549B21A
:1047500000F076F901BD80B50123012200F099F83F
:1047600001BD80B500F0AFF8002801D0002000E0C6
:104770000120C0B202BD80B500F01DF901BDFEE709
:10478000E0B516490880002001900988322048438E
:10479000642101F01FFE401C00900023104A1149C3
:1047A000114801F0A7FA01200EBD1CB50B48018885
:1047B00032204843642101F00DFE00900A4C6A4605
:1047C0000021200001F0A5FB200001F0CBFA13BD71
:1047D00080B5054801F074FB01BD00002A3B0020B4
:1047E000ED47010898AE01080C38002080B5FEF7AF
:1047F00071FD01BD40604168016070474268116011
:1048000042684A6041600860704700B501688142B3
:1048100001D1012000E00020C0B200BD80B52430ED
:10482000FFF7E8FF002002BD70B506000C00150080
:104830002000FFF7C3FBEDB2002D02D0012D06D002
:104840001EE0210024313000FFF7D8FF18E0356862
:1048500000E02D68B5420CD0280024384521615C69
:104860004522825C9142F4D2210024312430FFF7AA
:10487000C5FFB54204D1210024313000FFF7BEFF4F
:10488000002070BD80B500682438FFF7BCFB002015
:1048900002BD7CB50400002C07D100206D462870B5
:1048A0006D46002028560028FAD01D0016000A0088
:1048B0000121200001F03AFC2000FFF7AFFFA685A0
:1048C0006576002076BDF3B581B00500002D07D1D7
:1048D0000020694608706946002008560028FAD072
:1048E00047490868002802D028000968884701F075
:1048F00027F80700A88D00280ED0A88D401EA88597
:10490000380001F021F83F490868002802D028004B
:10491000096888470020FEBD0298002805D13800AC
:1049200001F012F80120C043F5E701F009F8040096
:10493000FFF7B2FA002807D10020694608706946DF
:10494000002008560028FAD000F0FAFF060001F017
:10495000DDFD002807D00020694608706946002068
:1049600008560028FAD0300000F0EEFF200000F0DA
:10497000EBFFFFF791FA0400002020646A7E21001B
:1049800028002430FFF750FF0298012809DB02AA13
:10499000002120005C3001F0BCFA20005C3001F006
:1049A000E1F9380000F0D0FF01F09DF8206C0028FC
:1049B000A9D0206CAFE770B504001349086800283F
:1049C00002D0200009688847002600F0B9FF0500E2
:1049D00020002430FFF719FF002805D120002430E3
:1049E000FFF750FF012602E0A08D401CA0852800A3
:1049F00000F0AAFF012E01D101F075F8002070BD72
:104A0000FC3A0020003B0020043B002038B50400A5
:104A1000002C07D100206B4618706B4600201856FA
:104A20000028FAD015000A000321200001F07EFBC7
:104A300065762000FFF7F2FE0020E062002032BD24
:104A4000F8B50400002C07D100206A4610706A46B1
:104A5000002010560028FAD00E00002E02D10020AF
:104A6000C0434EE000273D0027490868002802D0D7
:104A700020000968884700F063FF0090E06A064361
:104A8000E66220002430FFF7C0FE002831D1666ABC
:104A90001BE05022825C920709D5C26CE36A134086
:104AA000002B04D0C16CE26A0A40C2643900366847
:104AB00000290AD15021415C490703D5E16AC26C43
:104AC0009143E162FFF79FFA0125200024308642DE
:104AD0000FD0300024380021C9435022825CD20715
:104AE000D7D5C36CE26A1A40C36C9A42DFD1390051
:104AF000DDE7009800F028FF012D01D100F0F3FF61
:104B00000020F2BD00000000043B0020FEB584B090
:104B100005000C0000F014FF0700FFF7BDF90028A6
:104B200007D1002069460870694600200856002811
:104B3000FAD000F005FF060001F0E8FC002807D0DD
:104B40000020694608706946002008560028FAD0FF
:104B50000095300000F0F8FE380000F0F5FE0098F7
:104B6000002807D1002069460871694604200856CC
:104B70000028FAD002940298002802D10020C043F5
:104B800079E00025ED43FFF787F90400002727644B
:104B90003A490868002802D00098096888476846A2
:104BA000067D00F0CDFE0390F00708D50098C06A9E
:104BB000029901400298814212D13D0010E0B007F5
:104BC00007D50098C06A02990140002908D03D002D
:104BD00006E0684607716946042008560028FAD0A6
:104BE000002D0ED10098C06A029901400C98016016
:104BF000700735D50098C06A029988430099C86249
:104C00002EE00698002803D10120C043206427E04D
:104C10000298E064502026540098427E21000098BB
:104C20002430FFF701FE0698012809DB06AA0021BF
:104C300020005C3001F06DF920005C3001F092F84A
:104C4000039800F081FE00F04EFF206C002801D098
:104C5000206C10E000F074FE0390E06C0C9908608A
:104C6000039800F071FE06490868002802D00098F9
:104C700009688847206C07B0F0BD0000FC3A0020AE
:104C8000003B002038B5040010001A0000252B005E
:104C900064B2002C1FD1030008002149214C21607F
:104CA0002149224C21602249224C21602249234C77
:104CB000216091490D609149914C21609349964C36
:104CC00021609649984C216052B21900C0B200F0A0
:104CD00059FC040000E00224200040B200280AD160
:104CE00000F0C0FB002801D1032402E00120934919
:104CF000087000F0EEFB200040B232BD70B5002419
:104D000025008E4E00203056012804D10548006849
:104D10008047347000E00625280040B270BD0000D6
:104D2000D7550108B03A0020F5550108B43A0020E3
:104D300051560108AC3A00200D560108B83A00203F
:104D4000F8B5002420007D4800214056002801D0FD
:104D50000620D0E0684600F095FB012800D0C9E0AD
:104D6000009800B2012809D0022808D0042820D0D9
:104D700008287BD0102800D189E0BBE0BAE0704C55
:104D8000704A71492000714B1B68984740B2002857
:104D900008D1247800F0BCF8844203D1042000F04C
:104DA00069FB05E0012000F0C5F8102000F062FB6F
:104DB000A0E0674864490968097801700126654FD9
:104DC000310039700178C9B2C909C9B2002904D0CB
:104DD0005D4800684078387038E006E0082161439B
:104DE000695C0278914209D0641C102C2EDA5A4D6D
:104DF00008216143695C0029F0D127E0012000F01F
:104E000081F800F025FD002814D000F017FD4D4971
:104E10000880022E17DA3000C0B200F081F849494C
:104E20004948006808226243AA18526890473870BF
:104E3000761CEEE7434944480068082254432A1987
:104E4000526890473870002000F05CF80020385617
:104E5000002806D0022000F06DF8102000F00AFBB8
:104E600003E000F062FB00F048FB43E0364C20001A
:104E700000F0DEFC00F0E2FC050000F049F82A003A
:104E800092B22168C0B2354B1B68984732E000F0FF
:104E90004DF805002C4C200000F0CAFC6DB2002D2E
:104EA00003D0022D19D00CD322E000F0C7FC05007E
:104EB00000F02EF82A0092B22168C0B200F022FB66
:104EC00016E000F0BBFC050000F022F82A0092B2C8
:104ED0002168C0B200F01CFB0AE000F0AFFC050046
:104EE00000F016F82A0092B22168C0B200F016FB5A
:104EF00000F003FB0020F2BDBC3A0020D9560108A7
:104F0000C03A002016490870704700005B5701083E
:104F10001448007870470000C43A0020AD570108DB
:104F20001049087070470000C83A00200E48002160
:104F3000405670470C49087070470000A4090020D3
:104F40004E3B00202C3B0020CC3A0020B83A0020F9
:104F50004F3B0020503B002038080020AC3A002096
:104F60004C3B00204B3B00204D3B0020F7B504009C
:104F70000F0000252E00FFF7CBFF02214843A64972
:104F80000818801E01216A465180A44909886A4692
:104F90001180A3497B181A002F0092B2BFB2BA4207
:104FA00031D36A461289ADB26F467F88EF19BC468D
:104FB0001F00BFB21500ADB27D196746AF4222DBBC
:104FC0006D462D885B1B1500ADB2002D1CD02578D9
:104FD0002F02BC461F00BFB202257D4367464753E0
:104FE000641C1D00ADB202276F43C75B25782F43B9
:104FF000BC461F00BFB202257D4367464753641C71
:105000005B1C5218DFE70126300040B2FEBDFDB543
:1050100082B00C0000252E00FFF77AFFFA2109016B
:10502000484380490818D0494018FA27FF00CF4963
:1050300009886A4611807A4963181A002C0092B2D6
:10504000A4B2A2424FD36A469289ADB2BFB2EC1964
:105050001D00ADB21700BFB2ED19AC4243DB6D4687
:1050600010242D576C4624881B1B029C6DB2002D0A
:1050700014D0012D32D037E01D00ADB202276F43AE
:10508000C55BADB22D0A2570641C1D00ADB20227B0
:105090006F43C55B2570641C5B1C52181500ADB2D4
:1050A000002DE9D120E025782F02BC461F00BFB2B9
:1050B00002257D4367464753641C1D00ADB202279D
:1050C0006F43C75B25782F43BC461F00BFB2022544
:1050D0007D4367464753641C5B1C52181500ADB2F4
:1050E000002DE0D100E00126300040B205B0F0BD57
:1050F000FDB50C0000263500FFF70AFFFA21090173
:1051000048434849081898494018FA27FF0097492A
:105110000988631E1A00340092B2A4B2A24277D367
:105120006A469288B6B2BFB2F4191E00B6B2170032
:10513000BFB2F619B4426BDB6E46082434579BB2FB
:1051400089B2591A4910009B64B2002C23D0012C5B
:1051500059D05EE00C00A4B2042666438459240EA4
:105160001C705B1C0C00A4B2042666438459240CFA
:105170001C705B1C0C00A4B2042666438459240AEC
:105180001C705B1C0C00A4B20426664384591C707E
:105190005B1C491C921E1400A4B2002CDAD138E02A
:1051A0001C7824060E00B6B204277743C4515B1C5A
:1051B0000C00A4B20426664386591C7824043443A8
:1051C0000E00B6B204277743C4515B1C0C00A4B296
:1051D0000426664386591C78240234430E00B6B276
:1051E00004277743C4515B1C0C00A4B20426664319
:1051F00086591C7834430E00B6B204277743C45155
:105200005B1C491C921E1400A4B2002CC8D100E003
:105210000125280040B2FEBD443B0020423B002057
:10522000FFFF0000A8090020F5B583B00E001C00A8
:105230000020694608706846008A082101F0CAF813
:1052400005006D1CFFF764FE0221484381490F18D9
:10525000BF1E00201021804A12886B469A80721E61
:105260006B465A806A46528803009BB29A4272D3B8
:1052700080B289B24018694649886A46128A8918FC
:10528000884268DB68464470684640886946898879
:10529000401A80B2082101F09DF806006846408857
:1052A00069468988401A80B2082101F093F868465F
:1052B0004180039C69460120085600280ED0012831
:1052C0002FD04BE0082268464188300080B2381861
:1052D00000F008FB761C2070641C6D1E280080B254
:1052E0000028EFD1641E6846008A082101F072F898
:1052F000207808220B00D21A9040207020780822D3
:10530000511A0841207029E02000441C037808222B
:1053100068464188300080B2381800F0B5FA761C33
:105320006D1E280080B20228EEDA6846008A082145
:1053300001F050F8080080B200280BD0601C2378E0
:105340000A00D2B268464188300080B2381800F0B6
:105350009BFA761C02E0012069460870694600202D
:10536000085605B0F0BD000060F0FFFF463B00208E
:10537000F7B506000C0000206946087068460089F1
:10538000082101F027F805006D1CFFF7C1FD02217F
:10539000484332490F18BF1E00201021304A12889E
:1053A0006B469A80621E6B465A806A46528803009A
:1053B0009BB29A4246D380B289B240186946498866
:1053C0006A461289891888423CDB684640886946EB
:1053D0008988401A80B2082100F0FCFF040068466A
:1053E000408869468988401A80B2082100F0F2FF9F
:1053F000684641800CE03000461C0378082268466D
:105400004188200080B2381800F03EFA641C6D1EFE
:10541000280080B20228EEDA68460089082100F0F0
:10542000D9FF080080B200280FD0701C33780A0022
:10543000D2B268464188200080B2381800F024FAC1
:10544000641C02E001206946087069460020085685
:10545000FEBD0000403B00203E3B00203C3B0020C6
:105460003A3B002080B5012242494348FFF7CEFA7B
:10547000012002BD80B5010009B23F48FFF7E0FA04
:10548000012002BD1CB5040001A800900023DB43ED
:1054900006221F213848FFF739FB0198012808D060
:1054A000022809D004280AD008280BD010280CD0D4
:1054B0000DE0012020800AE00220208007E0042087
:1054C000208004E00820208001E0102020800120BE
:1054D00016BD80B50123012228492948FFF7D9F9D3
:1054E00001BD80B501002648FFF7EDF9002801D085
:1054F000002000E00120C0B202BD80B52048FFF7C7
:105500005AFA01BD80B540211B48FFF799FA01BD49
:1055100080B580211848FFF793FA01BD80B580213E
:1055200049001548FFF78CFA01BD80B520211248CB
:10553000FFF786FA01BD1CB5002401A800900023E6
:10554000DB430622F02149000B48FFF7DFFA019800
:10555000203806D0203805D0403805D0803805D016
:1055600005E004E0042402E0032400E00624200017
:1055700040B216BDB8AE0108743900201CAF010856
:1055800044390020F8B507000D001600002400F093
:10559000C3FF33005BB2082229003800C0B200F01C
:1055A000C9FF012801D0032410E0A848854201D397
:1055B000232005E0A84802214D43290000F00DFFFB
:1055C00080B201F09BF8012800D0032400F0AAFF6C
:1055D000200040B2F2BD80B500F09EFF00209F4940
:1055E00008700021012001F015F801F09CF800F08E
:1055F00099FF01BD80B500F08FFF0021002001F070
:1056000009F801F0C8F800F08DFF01BDF4B50700FE
:105610000E00002400F080FF91480088042811DB70
:10562000904D8F480188280001F0CEF8002809D15C
:105630000098297839708A490988C91E0180681C38
:10564000306000E0052400F06DFF200040B2F2BDA4
:10565000F1B50D001600002468460078022801DB31
:10566000022038E000F058FF7C4800214056012815
:105670002CD130007C4F6D1E3D607C4D01262E806C
:10568000694609783A68117029880818288029889D
:10569000386801F099F829880A00521C2A80744A57
:1056A000030089B2535429880B005B1C2B8080B205
:1056B000000A89B250546F4806700121002000F0A2
:1056C000A9FF2988386800F0DCFF00E0052400F01D
:1056D00029FF200040B2F2BD7CB500252C006846B1
:1056E00000F0DBFF5D4E00203056002805D0022878
:1056F0001ED008D3032803D02CE001F014F829E0D1
:1057000001F011F826E001F046F828005949087028
:105710005348058001880A00521C028068460078C0
:10572000504A89B250540220307000F0FCFF11E062
:105730004B480188FF2909DC01880A00521C0280BD
:1057400068460078474A89B2505401E0032030701F
:1057500000F0E9FF2000C0B276BD70B50020060061
:10576000444C00216156002902D0012905D01AE0DD
:105770000021012000F04EFF15E03D490978002985
:1057800001D10120FFE73C4D28700021012000F0ED
:1057900041FF022020702878012802D100F0D9FFB3
:1057A00001E000F0E7FF3000C0B270BD70B500242A
:1057B0002500EDB2294E00203056002804D00228E2
:1057C00007D003280AD011E00120FFF753FE05009F
:1057D0000CE00220FFF74EFE050007E00120FFF776
:1057E000A9FB1020FFF746FE0500FFE701203070FF
:1057F000204E0020305602280BD11F480078002888
:1058000006D10020FFF796FB1020FFF733FE0500BE
:10581000FFE7347000F0BFFF18480021405602280F
:1058200003D10420FFF726FE05002800C0B270BD9A
:105830001349016070471349088070471148008878
:1058400070470E490870704700000000014B0000CF
:105850000948007870470000A07F1700523B0020E5
:10586000343B002098320020D03A0020323B002008
:1058700098310020513B0020533B0020543B002036
:1058800099310020303B0020F0B4DBB20C00A4B210
:10589000E4080D00ADB22600B6B208277743ED1B31
:1058A000AB40012595406D1E89B2220092B20826B8
:1058B0005643891B8D40210089B2415C220092B27F
:1058C0008218527812020A43AA4313431900220095
:1058D00092B28154190089B2090AA4B20019417028
:1058E000F0BC704730B40B009BB2DB0889B21C00DF
:1058F000A4B2082565434C1B01219140491E1A00A2
:1059000092B2825C9BB2C01840780002104380B211
:10591000E04001400800C0B230BC704700B540B262
:10592000002804D0012804D0072804D005E0002076
:1059300004E0022002E0062000E0042040B200BDA6
:10594000EFF3108072B6704780F3108870472B4ACF
:105950001368012B03D001231360294A1060294AE0
:1059600011602948294901607047EFF3108272B62F
:105970002248016800291DD00021016020480168EB
:1059800000290AD0EFF30981203900680160F0C1D5
:1059900044464D4656465F46F0C11A4909680968B3
:1059A000F0C9F0B4F0C9A046A946B246BB46F0BC67
:1059B00081F3098882F3108804204042004711498E
:1059C00008600F49002008600C4901200860104859
:1059D00010490268114301600B480C49016000BF87
:1059E0000D480068006800BF80F3088862B6704701
:1059F000EFF3098000B500F0D5FC00BD9C3A002013
:105A0000943A0020983A002004ED00E000000010D5
:105A100020ED00E00000FF0008ED00E0406041687C
:105A2000016070474268116042684A6041600860E6
:105A300070474168026851600168426811604060C7
:105A400041680160704700B50168814201D10120C1
:105A500000E00020C0B200BD80B5002807D10021C1
:105A60006A4611706A46002151560029FAD0816BAE
:105A7000C26A914205D2816B828F8918C06A8142C5
:105A800004D2FFF75DFF0028FDD1FFE701BD38B567
:105A90000024200067490880250006E066480821A8
:105AA00069434018FFF7BAFF6D1C202DF6DB1F205D
:105AB0006249087062480460624804606248FFF707
:105AC000ADFF31BD80B55F48006800F020FC401E8E
:105AD00059490822504308582438594908602C3045
